{
  "contractName": "Subscription",
  "abi": [
    {
      "constant": true,
      "inputs": [],
      "name": "voucherId",
      "outputs": [
        {
          "name": "",
          "type": "uint256"
        }
      ],
      "payable": false,
      "stateMutability": "view",
      "type": "function"
    },
    {
      "constant": true,
      "inputs": [
        {
          "name": "",
          "type": "uint256"
        }
      ],
      "name": "vouchers",
      "outputs": [
        {
          "name": "id",
          "type": "uint256"
        },
        {
          "name": "amount",
          "type": "uint256"
        },
        {
          "name": "created",
          "type": "uint256"
        }
      ],
      "payable": false,
      "stateMutability": "view",
      "type": "function"
    },
    {
      "constant": false,
      "inputs": [
        {
          "name": "amount",
          "type": "uint256"
        }
      ],
      "name": "createVoucher",
      "outputs": [],
      "payable": false,
      "stateMutability": "nonpayable",
      "type": "function"
    }
  ],
  "bytecode": "0x608060405234801561001057600080fd5b5061023c806100206000396000f3fe608060405234801561001057600080fd5b506004361061005e576000357c0100000000000000000000000000000000000000000000000000000000900480631631b95c146100635780633e97b43f1461008157806396e96e20146100d1575b600080fd5b61006b6100ff565b6040518082815260200191505060405180910390f35b6100ad6004803603602081101561009757600080fd5b8101908080359060200190929190505050610105565b60405180848152602001838152602001828152602001935050505060405180910390f35b6100fd600480360360208110156100e757600080fd5b810190808035906020019092919050505061012f565b005b60015481565b60006020528060005260406000206000915090508060000154908060010154908060020154905083565b600081101515156101a8576040517f08c379a000000000000000000000000000000000000000000000000000000000815260040180806020018281038252601d8152602001807f416d6f756e74206d7573742062652067726561746572207468616e203000000081525060200191505060405180910390fd5b60606040519081016040528060015481526020018281526020014281525060008060015481526020019081526020016000206000820151816000015560208201518160010155604082015181600201559050506001600081548092919060010191905055505056fea165627a7a72305820348416c9eafd260b87b6bb5bef352c889675c602cb505be2f7ffb70e5a0a5f690029",
  "source": "pragma solidity ^0.5.2;\n\ncontract Subscription {\n  struct Voucher {\n    uint id;\n    uint amount;\n    uint created;\n  }\n\n  mapping(uint => Voucher) public vouchers;\n\n  uint public voucherId;\n\n  function createVoucher(uint amount) public {\n    require(amount >= 0, 'Amount must be greater than 0');\n    vouchers[voucherId] = Voucher(\n      voucherId,\n      amount,\n      now \n    );\n    voucherId++;\n  }\n  \n}\n",
  "sourcePath": "C:/js/mern/voucher/contracts/Subscription.sol",
  "compiler": {
    "name": "solc",
    "version": "0.5.2+commit.1df8f40c.Emscripten.clang"
  },
  "schemaVersion": "3.3.4",
  "updatedAt": "2021-05-06T10:58:34.876Z",
  "networkType": "ethereum",
  "devdoc": {
    "methods": {}
  },
  "userdoc": {
    "methods": {}
  }
}