{
  "contractName": "Subscription",
  "abi": [
    {
      "constant": true,
      "inputs": [],
      "name": "voucherId",
      "outputs": [
        {
          "name": "",
          "type": "uint256"
        }
      ],
      "payable": false,
      "stateMutability": "view",
      "type": "function"
    },
    {
      "constant": true,
      "inputs": [
        {
          "name": "",
          "type": "uint256"
        }
      ],
      "name": "vouchers",
      "outputs": [
        {
          "name": "id",
          "type": "uint256"
        },
        {
          "name": "voucherGeneratedId",
          "type": "string"
        },
        {
          "name": "amount",
          "type": "uint256"
        },
        {
          "name": "created",
          "type": "uint256"
        }
      ],
      "payable": false,
      "stateMutability": "view",
      "type": "function"
    },
    {
      "anonymous": false,
      "inputs": [
        {
          "indexed": true,
          "name": "voucherId",
          "type": "uint256"
        },
        {
          "indexed": true,
          "name": "voucherGeneratedId",
          "type": "string"
        },
        {
          "indexed": false,
          "name": "amount",
          "type": "uint256"
        },
        {
          "indexed": true,
          "name": "created",
          "type": "uint256"
        }
      ],
      "name": "VoucherCreated",
      "type": "event"
    },
    {
      "constant": false,
      "inputs": [
        {
          "name": "amount",
          "type": "uint256"
        },
        {
          "name": "voucherGeneratedId",
          "type": "string"
        }
      ],
      "name": "createVoucher",
      "outputs": [],
      "payable": false,
      "stateMutability": "nonpayable",
      "type": "function"
    },
    {
      "constant": true,
      "inputs": [
        {
          "name": "id",
          "type": "uint256"
        }
      ],
      "name": "getVouchers",
      "outputs": [
        {
          "name": "",
          "type": "uint256"
        },
        {
          "name": "",
          "type": "string"
        },
        {
          "name": "",
          "type": "uint256"
        },
        {
          "name": "",
          "type": "uint256"
        }
      ],
      "payable": false,
      "stateMutability": "view",
      "type": "function"
    }
  ],
  "bytecode": "0x608060405234801561001057600080fd5b50610713806100206000396000f3fe608060405234801561001057600080fd5b5060043610610069576000357c0100000000000000000000000000000000000000000000000000000000900480631631b95c1461006e57806324ba25ce1461008c5780633e97b43f1461014857806349003b9114610204575b600080fd5b6100766102c9565b6040518082815260200191505060405180910390f35b6100b8600480360360208110156100a257600080fd5b81019080803590602001909291905050506102cf565b6040518085815260200180602001848152602001838152602001828103825285818151815260200191508051906020019080838360005b8381101561010a5780820151818401526020810190506100ef565b50505050905090810190601f1680156101375780820380516001836020036101000a031916815260200191505b509550505050505060405180910390f35b6101746004803603602081101561015e57600080fd5b81019080803590602001909291905050506103d8565b6040518085815260200180602001848152602001838152602001828103825285818151815260200191508051906020019080838360005b838110156101c65780820151818401526020810190506101ab565b50505050905090810190601f1680156101f35780820380516001836020036101000a031916815260200191505b509550505050505060405180910390f35b6102c76004803603604081101561021a57600080fd5b81019080803590602001909291908035906020019064010000000081111561024157600080fd5b82018360208201111561025357600080fd5b8035906020019184600183028401116401000000008311171561027557600080fd5b91908080601f016020809104026020016040519081016040528093929190818152602001838380828437600081840152601f19601f8201169050808301925050505050505091929192905050506104a0565b005b60015481565b60006060600080600080868152602001908152602001600020600001546000808781526020019081526020016000206001016000808881526020019081526020016000206002015460008089815260200190815260200160002060030154828054600181600116156101000203166002900480601f0160208091040260200160405190810160405280929190818152602001828054600181600116156101000203166002900480156103c25780601f10610397576101008083540402835291602001916103c2565b820191906000526020600020905b8154815290600101906020018083116103a557829003601f168201915b5050505050925093509350935093509193509193565b6000602052806000526040600020600091509050806000015490806001018054600181600116156101000203166002900480601f01602080910402602001604051908101604052809291908181526020018280546001816001161561010002031660029004801561048a5780601f1061045f5761010080835404028352916020019161048a565b820191906000526020600020905b81548152906001019060200180831161046d57829003601f168201915b5050505050908060020154908060030154905084565b600082111515610518576040517f08c379a000000000000000000000000000000000000000000000000000000000815260040180806020018281038252601d8152602001807f416d6f756e74206d7573742062652067726561746572207468616e203000000081525060200191505060405180910390fd5b6080604051908101604052806001548152602001828152602001838152602001428152506000806001548152602001908152602001600020600082015181600001556020820151816001019080519060200190610576929190610642565b50604082015181600201556060820151816003015590505060016000815480929190600101919050555042816040518082805190602001908083835b6020831015156105d757805182526020820191506020810190506020830392506105b2565b6001836020036101000a03801982511681845116808217855250505050505090500191505060405180910390206001547f59e64895b857ce3fa16ff37545af247ebe042f883679161fa28f7c522df42a7b856040518082815260200191505060405180910390a45050565b828054600181600116156101000203166002900490600052602060002090601f016020900481019282601f1061068357805160ff19168380011785556106b1565b828001600101855582156106b1579182015b828111156106b0578251825591602001919060010190610695565b5b5090506106be91906106c2565b5090565b6106e491905b808211156106e05760008160009055506001016106c8565b5090565b9056fea165627a7a723058205c593b676b39fecb36435a216f87bb9b5980a11fb6388cd50327434a20927f480029",
  "source": "pragma solidity ^0.5.2;\n\ncontract Subscription {\n  struct Voucher {\n    uint id;\n    string voucherGeneratedId;\n    uint amount;\n    uint created;\n  }\n\n  event VoucherCreated(\n        uint256 indexed voucherId,\n        string indexed voucherGeneratedId,\n        uint256 amount,\n        uint256 indexed created\n    );\n\n  mapping(uint => Voucher) public vouchers;\n\n  uint public voucherId;\n\n  function createVoucher(uint256 amount, string memory voucherGeneratedId) public {\n    require(amount > 0, 'Amount must be greater than 0');\n    vouchers[voucherId] = Voucher(\n      voucherId,\n      voucherGeneratedId,\n      amount,\n      now \n    );\n    voucherId++;\n    emit VoucherCreated(voucherId, voucherGeneratedId, amount, now);\n  }\n\n  function getVouchers(uint256 id) public view returns (uint256, string memory, uint256, uint256) {\n    return (vouchers[id].id, vouchers[id].voucherGeneratedId, vouchers[id].amount, vouchers[id].created);\n  }\n}\n",
  "sourcePath": "C:/js/mern/voucher/contracts/Subscription.sol",
  "compiler": {
    "name": "solc",
    "version": "0.5.2+commit.1df8f40c.Emscripten.clang"
  },
  "schemaVersion": "3.3.4",
  "updatedAt": "2021-05-15T21:15:22.175Z",
  "networkType": "ethereum",
  "devdoc": {
    "methods": {}
  },
  "userdoc": {
    "methods": {}
  }
}